:100000000C9435010C9466010C9466010C94660105
:100010000C9466010C9466010C9466010C946601C4
:100020000C9466010C9466010C9466010C946601B4
:100030000C9466010C9466010C9466010C946601A4
:100040000C9466010C9466010C9466010C94660194
:100050000C9466010C9466010C9466010C94CE021B
:100060000C9466010C9442030C9418030C946601E2
:100070000C9466010C9466010C9466010C94660164
:100080000C9466010C9466010C9466010C94660154
:100090000C9466010C9466010C9466010C94660144
:1000A0000C9466010C9466010C9466010C94660134
:1000B0000C9466010C9466010C9466010C94660124
:1000C0000C9466010C9466010C9466010C94660114
:1000D0000C9466010C9466010C9466010C94660104
:1000E0000C9466010C9407050C94C8040C94CC0481
:1000F0000C9470020C94C4040C947E040C940305BC
:100100000C94F1040C94EB010C94DD010C94F904B3
:100110000C94D3040C94C9010C948D010C94D0045C
:100120000C94F5040C94FF040C94E7040C94BA01AD
:100130000C94E3040C9423020C94D9040C94DD0475
:100140000C9479040C94EB04000022002500280094
:100150002B002E00310034000201000005010801CF
:100160000B0100002100240027002A002D00300090
:10017000330001010000040107010A010000200012
:100180002300260029002C002F003200000100006F
:10019000030106010901050505050705080808080A
:1001A000020202020A0A080804040404010101010F
:1001B000010101010303030303030303040707070A
:1001C0000C0C0C0C0C0C0C0C0202020206060606AF
:1001D000060606060B0B0B0B0B0B0B0B010210207C
:1001E000200808102040102040800201020108046D
:1001F0000201010204081020408080402010080401
:100200000201800402018040201008040201080459
:10021000020101020408102040800102040810209D
:10022000408000000A0B02090C0D0E0807030401B0
:1002300000000000000000000000000000000000BE
:10024000000000000000000000000000000012118B
:10025000100000000000000000000000000000008E
:100260000000000000000000070511241FBECFEFB2
:10027000D1E2DEBFCDBF00E00CBF12E0A0E0B2E0F3
:10028000ECE7FAE000E00BBF02C007900D92A43249
:10029000B107D9F722E0A4E2B2E001C01D92AA3C66
:1002A000B207E1F711E0C5E3D1E000E006C0219715
:1002B0000109802FFE010E943405C433D10780E07C
:1002C0000807A9F70E9478030C943C050C940000E1
:1002D0003FB7F8948091290290912A02A0912B02B5
:1002E000B0912C0226B5A89B05C02F3F19F00196AE
:1002F000A11DB11D3FBFBA2FA92F982F8827BC0180
:10030000CD01620F711D811D911D42E0660F771FA7
:10031000881F991F4A95D1F70895AF92BF92CF9247
:10032000DF92EF92FF920F931F93CF93DF936C01B5
:100330007B018B01040F151FEB015E01AE18BF0896
:10034000C017D10759F06991D601ED91FC91019048
:10035000F081E02DC6011995892B79F7C501DF9150
:10036000CF911F910F91FF90EF90DF90CF90BF90B2
:10037000AF900895FC01538D448D252F30E0842FDC
:1003800090E0821B930B541710F0CF9608950197BD
:100390000895FC01918D828D981761F0A28DAE0FAA
:1003A000BF2FB11D5D968C91928D9F5F9F73928F31
:1003B00090E008958FEF9FEF0895FC01918D828D5D
:1003C000981731F0828DE80FF11D858D90E008952A
:1003D0008FEF9FEF0895FC01918D228D892F90E082
:1003E000805C9F4F821B91098F73992708958DE23E
:1003F00092E00E94EB0121E0892B09F420E0822F9A
:100400000895FC01A48DA80FB92FB11DA35ABF4FA9
:100410002C91848D90E001968F739927848FA68903
:10042000B7892C93A089B1898C91837080648C9357
:10043000938D848D981306C00288F389E02D808106
:100440008F7D80830895EF92FF920F931F93CF9338
:10045000DF93EC0181E0888F9B8D8C8D98131AC0FF
:10046000E889F989808185FF15C09FB7F894EE89E6
:10047000FF896083E889F989808183708064808343
:100480009FBF81E090E0DF91CF911F910F91FF908E
:10049000EF900895F62E0B8D10E00F5F1F4F0F7336
:1004A0001127E02E8C8D8E110CC00FB607FCFACFF1
:1004B000E889F989808185FFF5CFCE010E9401028C
:1004C000F1CFEB8DEC0FFD2FF11DE35AFF4FF082C2
:1004D0009FB7F8940B8FEA89FB8980818062CFCF28
:1004E000CF93DF93EC01888D8823B9F0AA89BB896B
:1004F000E889F9898C9185FD03C0808186FD0DC056
:100500000FB607FCF7CF8C9185FFF2CF808185FF76
:10051000EDCFCE010E940102E9CFDF91CF91089586
:1005200080E090E0892B29F00E94F70181110E9460
:10053000000080E090E0892B49F080E090E0892B7A
:1005400029F00E94000081110E94000080E090E0EC
:10055000892B49F080E090E0892B29F00E9400006F
:1005600081110E94000080E090E0892B49F080E03A
:1005700090E0892B29F00E94000081110C9400006A
:100580000895FC0101900020E9F73197AF01481B65
:10059000590BBC018DE292E00C948D011F920F92D9
:1005A0000FB60F9211242F933F938F939F93AF9386
:1005B000BF938091250290912602A0912702B091CD
:1005C00028023091240223E0230F2D3758F501969D
:1005D000A11DB11D20932402809325029093260231
:1005E000A0932702B09328028091290290912A02B9
:1005F000A0912B02B0912C020196A11DB11D8093F8
:10060000290290932A02A0932B02B0932C02BF914F
:10061000AF919F918F913F912F910F900FBE0F90AF
:100620001F90189526E8230F0296A11DB11DD2CF69
:100630001F920F920FB60F9211240BB60F922F93A9
:100640003F934F935F936F937F938F939F93AF935A
:10065000BF93EF93FF938DE292E00E940102FF911E
:10066000EF91BF91AF919F918F917F916F915F912A
:100670004F913F912F910F900BBE0F900FBE0F9097
:100680001F9018951F920F920FB60F9211240BB660
:100690000F922F938F939F93EF93FF93E0913D02DF
:1006A000F0913E028081E0914302F091440282FD8C
:1006B0001DC09081809146028F5F8F732091470209
:1006C000821741F0E0914602F0E0E35DFD4F958F27
:1006D00080934602FF91EF919F918F912F910F9000
:1006E0000BBE0F900FBE0F901F9018958081F2CF18
:1006F000CF93DF93CDB7DEB7A1970FB6F894DEBFE7
:100700000FBECDBF789484B5826084BD84B581600E
:1007100084BD85B5826085BD85B5816085BD8091CC
:100720006E00816080936E00109281008091810044
:10073000826080938100809181008160809381003C
:10074000809180008160809380008091B1008460FE
:100750008093B1008091B00081608093B00080915F
:1007600091008260809391008091910081608093DC
:100770009100809190008160809390008091A10011
:1007800082608093A1008091A10081608093A1008C
:100790008091A00081608093A000809121018260FF
:1007A00080932101809121018160809321018091BA
:1007B000200181608093200180917A008460809381
:1007C0007A0080917A00826080937A0080917A002A
:1007D000816080937A0080917A00806880937A00AB
:1007E0001092C1000EED11E0F801249148E9E42EC9
:1007F00041E0F42EF70184918823C9F090E0880F3E
:10080000991FFC01EE59FE4FA591B491FC01E85BE4
:10081000FE4F459154913FB7F8949C91822F80955B
:1008200098239C93FA019081892380833FBFE091B4
:100830003D02F0913E0282E08083E0913902F09126
:100840003A021082E0913B02F0913C028FEC8083EF
:1008500010924502E0914102F091420286E08083CD
:10086000E0913F02F0914002808180618083E091BD
:100870003F02F0914002808188608083E0913F02D6
:10088000F0914002808180688083E0913F02F09186
:10089000400280818F7D808324E2C22E22E0D22E0E
:1008A000F6018491F8012491F7019491B12C9923D8
:1008B00009F432C0882311F181508231F8F4E82F15
:1008C000F0E08827E959FB4F8F4F0C943405CC0496
:1008D000D0047904C404C8047E04D304D904DD041C
:1008E000E304E704EB04F104F5047E04F904FF04D7
:1008F0000305809180008F7780938000E92FF0E0DE
:10090000EE0FFF1FE458FE4FA591B4918C91282360
:1009100081E009F480E0B82E82E192E00E94C102F9
:1009200019A280E38B0D88A3CE0180960E94C1029C
:1009300080E292E00E94C1020E9468012B013C010A
:1009400088EE882E83E0982EA12CB12C0E9468019D
:100950006419750986099709683E734081059105F8
:10096000A8F3F1E08F1A9108A108B10828EE420E11
:1009700023E0521E611C711C81149104A104B10476
:1009800029F70E9490028CCF809180008F7DB4CF98
:1009900080918000877FB0CF84B58F7784BDAECF44
:1009A00084B58F7DFBCF8091B0008F778093B000AE
:1009B000A5CF8091B0008F7DF9CF809190008F7787
:1009C000809390009BCF809190008F7DF9CF809194
:1009D0009000877FF5CF8091A0008F778093A00053
:1009E0008DCF8091A0008F7DF9CF8091A000877F6F
:1009F000F5CF809120018F77809320017FCF809168
:100A000020018F7DF9CF80912001877FF5CFEDE226
:100A1000F2E01382128288EE93E0A0E0B0E08483DB
:100A20009583A683B78384E092E09183808385ECED
:100A300090E09587848784EC90E09787868780ECA8
:100A400090E0918B808B81EC90E0938B828B82EC99
:100A500090E0958B848B86EC90E0978B868B118E43
:100A6000128E138E148E0895EE0FFF1F881F8BBFFA
:0C0A70000790F691E02D1994F894FFCF48
:100A7C000000000023028D01BA017002EB01C901D4
:100A8C00DD0153656E736F722076616C75653A008B
:040A9C000D0A00003F
:00000001FF
